{
  "contractName": "Hash",
  "abi": [
    {
      "inputs": [
        {
          "internalType": "string",
          "name": "_key",
          "type": "string"
        }
      ],
      "name": "calculateHash",
      "outputs": [
        {
          "internalType": "bytes32",
          "name": "",
          "type": "bytes32"
        }
      ],
      "stateMutability": "pure",
      "type": "function"
    }
  ],
  "bytecode": "0x608060405234801561001057600080fd5b50610124806100206000396000f3fe6080604052348015600f57600080fd5b506004361060285760003560e01c8063a8cbcecd14602d575b600080fd5b609e60048036036020811015604157600080fd5b8101908080359060200190640100000000811115605d57600080fd5b820183602082011115606e57600080fd5b80359060200191846001830284011164010000000083111715608f57600080fd5b909192939192939050505060b4565b6040518082815260200191505060405180910390f35b600082826040516020018083838082843780830192505050925050506040516020818303038152906040528051906020012090509291505056fea264697066735822122099a14f428ae37a4651477b4ac5099076b07075ae514d352dc5934c8e08bb049264736f6c63430007040033",
  "immutableReferences": {},
  "source": "pragma solidity ^0.7.4; \n\ncontract Hash{\n    \n    function calculateHash(string calldata _key) external pure returns(bytes32){\n        return keccak256(abi.encodePacked(_key));\n    }\n}",
  "sourcePath": "/Applications/MAMP/htdocs/Solidity/HTLC/contracts/Hash.sol",
  "compiler": {
    "name": "solc",
    "version": "0.7.4+commit.3f05b770.Emscripten.clang"
  },
  "schemaVersion": "3.3.2",
  "updatedAt": "2020-11-15T11:50:17.241Z",
  "devdoc": {
    "kind": "dev",
    "methods": {},
    "version": 1
  },
  "userdoc": {
    "kind": "user",
    "methods": {},
    "version": 1
  }
}