{
  "contractName": "HTLC",
  "abi": [
    {
      "inputs": [
        {
          "internalType": "string",
          "name": "_secret",
          "type": "string"
        },
        {
          "internalType": "address",
          "name": "_recipient",
          "type": "address"
        },
        {
          "internalType": "address",
          "name": "_token",
          "type": "address"
        },
        {
          "internalType": "uint256",
          "name": "_amount",
          "type": "uint256"
        }
      ],
      "stateMutability": "nonpayable",
      "type": "constructor"
    },
    {
      "inputs": [],
      "name": "amount",
      "outputs": [
        {
          "internalType": "uint256",
          "name": "",
          "type": "uint256"
        }
      ],
      "stateMutability": "view",
      "type": "function",
      "constant": true
    },
    {
      "inputs": [],
      "name": "hash",
      "outputs": [
        {
          "internalType": "bytes32",
          "name": "",
          "type": "bytes32"
        }
      ],
      "stateMutability": "view",
      "type": "function",
      "constant": true
    },
    {
      "inputs": [],
      "name": "hashContract",
      "outputs": [
        {
          "internalType": "contract Hash",
          "name": "",
          "type": "address"
        }
      ],
      "stateMutability": "view",
      "type": "function",
      "constant": true
    },
    {
      "inputs": [],
      "name": "lockTime",
      "outputs": [
        {
          "internalType": "uint256",
          "name": "",
          "type": "uint256"
        }
      ],
      "stateMutability": "view",
      "type": "function",
      "constant": true
    },
    {
      "inputs": [],
      "name": "owner",
      "outputs": [
        {
          "internalType": "address",
          "name": "",
          "type": "address"
        }
      ],
      "stateMutability": "view",
      "type": "function",
      "constant": true
    },
    {
      "inputs": [],
      "name": "recipient",
      "outputs": [
        {
          "internalType": "address",
          "name": "",
          "type": "address"
        }
      ],
      "stateMutability": "view",
      "type": "function",
      "constant": true
    },
    {
      "inputs": [],
      "name": "secret",
      "outputs": [
        {
          "internalType": "string",
          "name": "",
          "type": "string"
        }
      ],
      "stateMutability": "view",
      "type": "function",
      "constant": true
    },
    {
      "inputs": [],
      "name": "startTime",
      "outputs": [
        {
          "internalType": "uint256",
          "name": "",
          "type": "uint256"
        }
      ],
      "stateMutability": "view",
      "type": "function",
      "constant": true
    },
    {
      "inputs": [],
      "name": "token",
      "outputs": [
        {
          "internalType": "contract IERC20",
          "name": "",
          "type": "address"
        }
      ],
      "stateMutability": "view",
      "type": "function",
      "constant": true
    },
    {
      "inputs": [],
      "name": "fund",
      "outputs": [],
      "stateMutability": "nonpayable",
      "type": "function"
    },
    {
      "inputs": [
        {
          "internalType": "string",
          "name": "_secret",
          "type": "string"
        }
      ],
      "name": "withdraw",
      "outputs": [],
      "stateMutability": "nonpayable",
      "type": "function"
    },
    {
      "inputs": [],
      "name": "refund",
      "outputs": [],
      "stateMutability": "nonpayable",
      "type": "function"
    }
  ],
  "bytecode": "0x608060405261271060015534801561001657600080fd5b50604051610f4a380380610f4a8339818101604052608081101561003957600080fd5b810190808051604051939291908464010000000082111561005957600080fd5b8382019150602082018581111561006f57600080fd5b825186600182028301116401000000008211171561008c57600080fd5b8083526020830192505050908051906020019080838360005b838110156100c05780820151818401526020810190506100a5565b50505050905090810190601f1680156100ed5780820380516001836020036101000a031916815260200191505b506040526020018051906020019092919080519060200190929190805190602001909291905050506040516101219061036a565b604051809103906000f08015801561013d573d6000803e3d6000fd5b50600460006101000a81548173ffffffffffffffffffffffffffffffffffffffff021916908373ffffffffffffffffffffffffffffffffffffffff160217905550600460009054906101000a900473ffffffffffffffffffffffffffffffffffffffff1673ffffffffffffffffffffffffffffffffffffffff1663a8cbcecd856040518263ffffffff1660e01b81526004018080602001828103825283818151815260200191508051906020019080838360005b8381101561020c5780820151818401526020810190506101f1565b50505050905090810190601f1680156102395780820380516001836020036101000a031916815260200191505b509250505060206040518083038186803b15801561025657600080fd5b505afa15801561026a573d6000803e3d6000fd5b505050506040513d602081101561028057600080fd5b810190808051906020019092919050505060028190555033600660006101000a81548173ffffffffffffffffffffffffffffffffffffffff021916908373ffffffffffffffffffffffffffffffffffffffff16021790555082600560006101000a81548173ffffffffffffffffffffffffffffffffffffffff021916908373ffffffffffffffffffffffffffffffffffffffff16021790555081600860006101000a81548173ffffffffffffffffffffffffffffffffffffffff021916908373ffffffffffffffffffffffffffffffffffffffff1602179055508060078190555050505050610377565b61014480610e0683390190565b610a80806103866000396000f3fe608060405234801561001057600080fd5b50600436106100b45760003560e01c806378e979251161007157806378e97925146102225780638da5cb5b14610240578063aa8c217c14610274578063b60d428814610292578063d1efd30d1461029c578063fc0c546a1461031f576100b4565b806309bd5a60146100b95780630d668087146100d75780632ff3e8f3146100f557806331fb67c214610129578063590e1ae3146101e457806366d003ac146101ee575b600080fd5b6100c1610353565b6040518082815260200191505060405180910390f35b6100df610359565b6040518082815260200191505060405180910390f35b6100fd61035f565b604051808273ffffffffffffffffffffffffffffffffffffffff16815260200191505060405180910390f35b6101e26004803603602081101561013f57600080fd5b810190808035906020019064010000000081111561015c57600080fd5b82018360208201111561016e57600080fd5b8035906020019184600183028401116401000000008311171561019057600080fd5b91908080601f016020809104026020016040519081016040528093929190818152602001838380828437600081840152601f19601f820116905080830192505050505050509192919290505050610385565b005b6101ec61061b565b005b6101f661078b565b604051808273ffffffffffffffffffffffffffffffffffffffff16815260200191505060405180910390f35b61022a6107b1565b6040518082815260200191505060405180910390f35b6102486107b7565b604051808273ffffffffffffffffffffffffffffffffffffffff16815260200191505060405180910390f35b61027c6107dd565b6040518082815260200191505060405180910390f35b61029a6107e3565b005b6102a46108db565b6040518080602001828103825283818151815260200191508051906020019080838360005b838110156102e45780820151818401526020810190506102c9565b50505050905090810190601f1680156103115780820380516001836020036101000a031916815260200191505b509250505060405180910390f35b610327610979565b604051808273ffffffffffffffffffffffffffffffffffffffff16815260200191505060405180910390f35b60025481565b60015481565b600460009054906101000a900473ffffffffffffffffffffffffffffffffffffffff1681565b600254600460009054906101000a900473ffffffffffffffffffffffffffffffffffffffff1673ffffffffffffffffffffffffffffffffffffffff1663a8cbcecd836040518263ffffffff1660e01b81526004018080602001828103825283818151815260200191508051906020019080838360005b838110156104165780820151818401526020810190506103fb565b50505050905090810190601f1680156104435780820380516001836020036101000a031916815260200191505b509250505060206040518083038186803b15801561046057600080fd5b505afa158015610474573d6000803e3d6000fd5b505050506040513d602081101561048a57600080fd5b81019080805190602001909291905050501461050e576040517f08c379a000000000000000000000000000000000000000000000000000000000815260040180806020018281038252600c8152602001807f77726f6e6720736563726574000000000000000000000000000000000000000081525060200191505060405180910390fd5b806003908051906020019061052492919061099f565b50600860009054906101000a900473ffffffffffffffffffffffffffffffffffffffff1673ffffffffffffffffffffffffffffffffffffffff1663a9059cbb600560009054906101000a900473ffffffffffffffffffffffffffffffffffffffff166007546040518363ffffffff1660e01b8152600401808373ffffffffffffffffffffffffffffffffffffffff16815260200182815260200192505050602060405180830381600087803b1580156105dc57600080fd5b505af11580156105f0573d6000803e3d6000fd5b505050506040513d602081101561060657600080fd5b81019080805190602001909291905050505050565b600154600054014211610696576040517f08c379a00000000000000000000000000000000000000000000000000000000081526004018080602001828103825260098152602001807f746f6f206561726c79000000000000000000000000000000000000000000000081525060200191505060405180910390fd5b600860009054906101000a900473ffffffffffffffffffffffffffffffffffffffff1673ffffffffffffffffffffffffffffffffffffffff1663a9059cbb600660009054906101000a900473ffffffffffffffffffffffffffffffffffffffff166007546040518363ffffffff1660e01b8152600401808373ffffffffffffffffffffffffffffffffffffffff16815260200182815260200192505050602060405180830381600087803b15801561074d57600080fd5b505af1158015610761573d6000803e3d6000fd5b505050506040513d602081101561077757600080fd5b810190808051906020019092919050505050565b600560009054906101000a900473ffffffffffffffffffffffffffffffffffffffff1681565b60005481565b600660009054906101000a900473ffffffffffffffffffffffffffffffffffffffff1681565b60075481565b42600081905550600860009054906101000a900473ffffffffffffffffffffffffffffffffffffffff1673ffffffffffffffffffffffffffffffffffffffff166323b872dd33306007546040518463ffffffff1660e01b8152600401808473ffffffffffffffffffffffffffffffffffffffff1681526020018373ffffffffffffffffffffffffffffffffffffffff1681526020018281526020019350505050602060405180830381600087803b15801561089d57600080fd5b505af11580156108b1573d6000803e3d6000fd5b505050506040513d60208110156108c757600080fd5b810190808051906020019092919050505050565b60038054600181600116156101000203166002900480601f0160208091040260200160405190810160405280929190818152602001828054600181600116156101000203166002900480156109715780601f1061094657610100808354040283529160200191610971565b820191906000526020600020905b81548152906001019060200180831161095457829003601f168201915b505050505081565b600860009054906101000a900473ffffffffffffffffffffffffffffffffffffffff1681565b828054600181600116156101000203166002900490600052602060002090601f0160209004810192826109d55760008555610a1c565b82601f106109ee57805160ff1916838001178555610a1c565b82800160010185558215610a1c579182015b82811115610a1b578251825591602001919060010190610a00565b5b509050610a299190610a2d565b5090565b5b80821115610a46576000816000905550600101610a2e565b509056fea2646970667358221220938f4b59e1e6d6a80e27c02333b9bd118269a80aca80681e93f9adef59d6359664736f6c63430007040033608060405234801561001057600080fd5b50610124806100206000396000f3fe6080604052348015600f57600080fd5b506004361060285760003560e01c8063a8cbcecd14602d575b600080fd5b609e60048036036020811015604157600080fd5b8101908080359060200190640100000000811115605d57600080fd5b820183602082011115606e57600080fd5b80359060200191846001830284011164010000000083111715608f57600080fd5b909192939192939050505060b4565b6040518082815260200191505060405180910390f35b600082826040516020018083838082843780830192505050925050506040516020818303038152906040528051906020012090509291505056fea264697066735822122099a14f428ae37a4651477b4ac5099076b07075ae514d352dc5934c8e08bb049264736f6c63430007040033",
  "immutableReferences": {},
  "source": "pragma solidity ^0.7.4; \n\nimport '@openzeppelin/contracts/token/ERC20/IERC20.sol';\nimport './Hash.sol';\n\ncontract HTLC{\n    \n    uint public startTime;\n    uint public lockTime = 10000;\n    bytes32 public hash;\n    string public secret;\n    Hash public hashContract;\n    address public recipient;\n    address public owner;\n    uint public amount;\n    IERC20 public token;\n    \n    \n    constructor(string memory _secret,address _recipient,address _token,uint256 _amount) public {\n        hashContract = new Hash();\n        hash = hashContract.calculateHash(_secret);\n        owner = msg.sender;\n        recipient = _recipient;\n        token= IERC20(_token);\n        amount=_amount;\n     \n    }\n    \n    \n    function fund() external{\n        startTime = block.timestamp;\n        token.transferFrom(msg.sender,address(this),amount);\n    }\n    \n    \n    function withdraw(string memory _secret)public{\n        require(hashContract.calculateHash(_secret) == hash,'wrong secret');\n        secret = _secret;\n        token.transfer(recipient,amount);\n    }\n    \n    function refund() public{\n        require(block.timestamp>startTime+lockTime,'too early');\n        token.transfer(owner,amount);\n    }\n}",
  "sourcePath": "/Applications/MAMP/htdocs/Solidity/HTLC/contracts/HTLC.sol",
  "compiler": {
    "name": "solc",
    "version": "0.7.4+commit.3f05b770.Emscripten.clang"
  },
  "schemaVersion": "3.3.2",
  "updatedAt": "2020-11-15T12:41:06.137Z",
  "networkType": "ethereum",
  "devdoc": {
    "kind": "dev",
    "methods": {},
    "version": 1
  },
  "userdoc": {
    "kind": "user",
    "methods": {},
    "version": 1
  }
}